{"abi":[{"type":"constructor","inputs":[{"name":"entranceFee","type":"uint256","internalType":"uint256"}],"stateMutability":"nonpayable"},{"type":"function","name":"enterRaffle","inputs":[],"outputs":[],"stateMutability":"payable"},{"type":"function","name":"getEntranceFee","inputs":[],"outputs":[{"name":"","type":"uint256","internalType":"uint256"}],"stateMutability":"view"},{"type":"function","name":"pickWinner","inputs":[],"outputs":[],"stateMutability":"nonpayable"},{"type":"error","name":"EntryEth","inputs":[]}],"bytecode":{"object":"0x60a0604052348015600e575f5ffd5b5060405161015d38038061015d833981016040819052602b916032565b6080526048565b5f602082840312156041575f5ffd5b5051919050565b60805160fa6100635f395f8181604001526085015260fa5ff3fe608060405260043610602f575f3560e01c806309bc33a71460335780632cfcc5391460715780635d495aea146079575b5f5ffd5b348015603d575f5ffd5b507f000000000000000000000000000000000000000000000000000000000000000060405190815260200160405180910390f35b60776083565b005b3480156077575f5ffd5b7f0000000000000000000000000000000000000000000000000000000000000000341460c2576040516315e6746f60e11b815260040160405180910390fd5b56fea26469706673582212208eed02506381b7622d27466174adcd11070e01c14a8208daa8eed7385ff57b9e64736f6c634300081c0033","linkReferences":{}},"methodIdentifiers":{"enterRaffle()":"2cfcc539","getEntranceFee()":"09bc33a7","pickWinner()":"5d495aea"},"id":0}